:020000040800F2
:10000000008001205D460008A9090008AB0900082E
:10001000AD090008AF090008B109000800000000A0
:10002000000000000000000000000000C1400008C7
:10003000B30900080000000061410008A139000870
:10004000AD460008AD460008AD460008AD460008C4
:10005000AD460008AD460008AD460008AD460008B4
:10006000AD460008AD460008AD460008AD460008A4
:10007000AD460008AD460008AD460008AD46000894
:10008000AD460008AD460008AD460008000000007F
:10009000000000000000000000000000AD46000865
:1000A000AD460008AD460008AD460008AD46000864
:1000B000AD460008AD460008B5090008AD46000889
:1000C000AD460008AD460008AD460008AD46000844
:1000D000AD460008AD460008AD460008000000002F
:1000E000AD460008AD460008AD460008000000001F
:1000F000000000000000000000000000AD46000805
:1001000000000000AD460008AD460008AD460008FE
:1001100000000000000000000000000000000000DF
:10012000C5090008AD460008AD460008AD46000808
:10013000AD460008000000000000000000000000C4
:10014000000000000000000000000000AD460008B4
:10015000AD460008AD460008AD460008AD460008B3
:10016000AD460008AD460008000000000000000099
:10017000000000000000000000000000000000007F
:1001800000000000AD460008000000000000000074
:04019000AD46000870
:1001A00010B5054C237833B9044B13B10448AFF3B1
:1001B00000800123237010BD7400002000000000A7
:1001C0000050000808B5034B1BB103490348AFF3C7
:1001D000008008BD000000007800002000500008EA
:1001E000034613F8012B002AFBD1181A0138704777
:1001F00001F0FF01102A2BDB10F0070F08D010F8D8
:10020000013B013A8B422DD010F0070F42B3F6D1DB
:10021000F0B441EA012141EA014122F007047FF0F4
:1002200000070023F0E80256083C85EA010586EA4B
:10023000010685FA47F5A3FA87F586FA47F6A5FA87
:1002400087F68EB9EED1F0BC01F0FF0102F0070293
:1002500032B110F8013B013A83EA010313B1F8D13E
:100260000020704701387047002D06BF354603381F
:10027000073815F0010F07D1013015F4807F02BF58
:10028000013015F4C03F0130F0BC0138704700BFA9
:1002900053B94AB9002908BF00281CBF4FF0FF31ED
:1002A0004FF0FF3000F074B9ADF1080C6DE904CEE9
:1002B00000F006F8DDF804E0DDE9022304B0704741
:1002C0002DE9F047089D04468E46002B4DD18A4209
:1002D000944669D9B2FA82F252B101FA02F3C2F13C
:1002E000200120FA01F10CFA02FC41EA030E9440CD
:1002F0004FEA1C48210CBEFBF8F61FFA8CF708FBEE
:1003000016E341EA034306FB07F199420AD91CEBC5
:10031000030306F1FF3080F01F81994240F21C81F7
:10032000023E63445B1AA4B2B3FBF8F008FB10333F
:1003300044EA034400FB07F7A7420AD91CEB040474
:1003400000F1FF3380F00A81A74240F20781644444
:10035000023840EA0640E41B00261DB1D4400023C9
:10036000C5E900433146BDE8F0878B4209D9002D2D
:1003700000F0EF800026C5E9000130463146BDE8B7
:10038000F087B3FA83F6002E4AD18B4202D3824221
:1003900000F2F980841A61EB030301209E46002DD0
:1003A000E0D0C5E9004EDDE702B9FFDEB2FA82F225
:1003B000002A40F09280A1EB0C014FEA1C471FFA83
:1003C0008CFE0126200CB1FBF7F307FB131140EA6A
:1003D00001410EFB03F0884208D91CEB010103F137
:1003E000FF3802D2884200F2CB804346091AA4B2F9
:1003F000B1FBF7F007FB101144EA01440EFB00FECD
:10040000A64508D91CEB040400F1FF3102D2A64531
:1004100000F2BB800846A4EB0E0440EA03409CE7D0
:10042000C6F12007B34022FA07FC4CEA030C20FA7D
:1004300007F401FA06F31C43F9404FEA1C4900FA9D
:1004400006F3B1FBF9F8200C1FFA8CFE09FB18111A
:1004500040EA014108FB0EF0884202FA06F20BD98D
:100460001CEB010108F1FF3A80F08880884240F2DD
:100470008580A8F102086144091AA4B2B1FBF9F021
:1004800009FB101144EA014100FB0EFE8E4508D91C
:100490001CEB010100F1FF346CD28E456AD90238A1
:1004A000614440EA0840A0FB0294A1EB0E01A14286
:1004B000C846A64656D353D05DB1B3EB080261EBF4
:1004C0000E0101FA07F722FA06F3F1401F43C5E9CE
:1004D000007100263146BDE8F087C2F12003D84004
:1004E0000CFA02FC21FA03F3914001434FEA1C4746
:1004F0001FFA8CFEB3FBF7F007FB10360B0C43EA38
:10050000064300FB0EF69E4204FA02F408D91CEBE7
:10051000030300F1FF382FD29E422DD902386344E5
:100520009B1B89B2B3FBF7F607FB163341EA034185
:1005300006FB0EF38B4208D91CEB010106F1FF38D4
:1005400016D28B4214D9023E6144C91A46EA0046CB
:1005500038E72E46284605E70646E3E61846F8E65D
:100560004B45A9D2B9EB020864EB0C0E0138A3E7A6
:100570004646EAE7204694E74046D1E7D0467BE787
:10058000023B614432E7304609E76444023842E7FF
:10059000704700BF30B58BB00024059406940794D3
:1005A000089409940194224B1A6B42F004021A63D6
:1005B0001A6B02F004020192019A02941A6B42F043
:1005C00080021A631A6B02F080020292029A03946C
:1005D0001A6B42F001021A631A6B02F001020392D5
:1005E000039A04941A6B42F002021A631B6B03F025
:1005F00002030493049B0F4D22462021284601F05C
:100600009DF94FF4005305934FF404130693079498
:1006100005A9094801F0B2F82023059301230693A8
:100620000794089405A9284601F0A8F80BB030BD3E
:1006300000380240000002400008024000B583B0CC
:1006400000220192094B196B41F4800119631B6B65
:1006500003F480030193019B0521382001F09AFBEC
:10066000382001F0CFFB03B05DF804FB00380240F6
:1006700008B5074B00221A7105490B7901330B713C
:100680000122044800F056FB0A2003F02BFAF3E79E
:10069000840100209800002038B503F0BBF904461F
:1006A0000A3003F02DFA00231A460D490D48006860
:1006B00003F039FB0028F0D002460B4D23460B49CE
:1006C000284604F02FF80A4B1D602846FFF788FDE6
:1006D0004FF0FF3382B22946064803F052FFDCE7B1
:1006E0008C01002090000020A0010020185000087C
:1006F0009C0100204001002038B503F08BF905462D
:1007000020210B4801F020F90A4C2A460A492046CC
:1007100004F008F8094B1C602046FFF761FD4FF01C
:10072000FF3382B22146064803F02BFF38BD00BFDD
:1007300000000240A0010020545000089C0100204D
:1007400040010020104B834200D0704710B50023B9
:100750001A460E490E48006803F0A3FA024600B993
:1007600010BD0C4C0C49204603F0DCFF0B4B1C6009
:100770002046FFF735FD4FF0FF3382B2214608488F
:1007800003F0FFFEECE700BF98000020840100208A
:1007900090000020A0010020745000089C0100205F
:1007A0004001002008B50268034B9A4200D008BD02
:1007B00001F050FBFBE700BF0008004072B6FEE707
:1007C00000B585B00023009301930293039315486D
:1007D000154A02604FF4803242604FF080728260AE
:1007E0000361037680F82030C362104A8262C360DE
:1007F0000122C26180F83030426100F06FFA60B9C6
:10080000002300930122019202936946054800F0FB
:100810008FFB20B905B05DF804FBFFF7CFFFFFF7B2
:10082000CDFF00BF98000020002001400100000F14
:1008300008B50A480A4B03604FF4E13343600023D4
:100840008360C36003610C2242618361C36103F072
:1008500069FE00B908BDFFF7B1FF00BF40010020ED
:100860000044004000B595B03022002108A803F0F4
:1008700051FF002303930493059306930793019379
:100880001F4A116C41F080511164126C02F08052C9
:100890000192019A02931B490A6822F4404242F4F1
:1008A00000420A600A6802F440420292029A02215F
:1008B000089101220B9210220C920E910F9310922C
:1008C0004FF4A8731193042312930723139308A8DA
:1008D00000F0FAFB80B90F23039302210491002357
:1008E00005934FF480520692079303A800F052FE3E
:1008F00020B915B05DF804FBFFF760FFFFF75EFF5E
:10090000003802400070004008B501F089FAFFF796
:10091000A9FFFFF73FFEFFF753FFFFF78FFEFFF73B
:1009200087FF03F049F8154B00220121144803F01A
:10093000FFF8144B1860E8B1642103F04DF9124A36
:100940000821012003F062F9104B186090B1104AA1
:100950000021104803F068F80F4B186050B10F4A9F
:1009600000210F4803F060F80E4B186010B103F03F
:1009700035F8FEE74FF0FF3008BD00BF3C510008DE
:10098000F906000898010020DC50000890000020C3
:10099000185100087106000894010020F450000866
:1009A0009906000894000020FEE7FEE7FEE7FEE758
:1009B000FEE7704708B5024801F0A0FA08BD00BF85
:1009C0000402002008B5024801F0E4F808BD00BFA9
:1009D000E000002000B583B0002200920D4B596C5E
:1009E00041F480415964596C01F4804100910099AF
:1009F0000192196C41F0805119641B6C03F0805313
:100A00000193019B0F216FF0010001F0C3F903B0C6
:100A10005DF804FB0038024030B589B00023039331
:100A20000493059306930793026803F1804303F54B
:100A300090339A4201D009B030BD0446002501959B
:100A400003F58C335A6C42F480725A645A6C02F487
:100A500080720192019A02951A6B42F001021A63A8
:100A60001B6B03F001030293029B012303930323F7
:100A7000049303A90F4800F081FE0F480F4B036059
:100A800045608560C5604FF4806303614FF4006387
:100A900043614FF400538361C5610562456200F014
:100AA000DDFF18B9044BA3639C63C4E7FFF786FE20
:100AB000F8E700BF00000240E000002010640240A0
:100AC00000B589B00023039304930593069307931D
:100AD0000268144B9A4202D009B05DF804FB002171
:100AE000019103F5FA331A6C42F400321A641A6C5D
:100AF00002F400320192019A02911A6B42F0010253
:100B00001A631B6B03F001030293029B0C230393F4
:100B1000022304930723079303A9034800F02EFE42
:100B2000DAE700BF004400400000024010B588B082
:100B3000014600221E2001F02DF91E2001F062F96D
:100B400000240194144B1A6C42F004021A641B6CCA
:100B500003F004030193019B02A903A800F0F0FD38
:100B600000F0CEFD43000D48A0FB03239B0C013B8E
:100B70000B480C4A026040F2E732C26043600461F5
:100B8000846001F0C7FA10B1012008B010BD04481C
:100B900001F074F9F9E700BF0038024083DE1B431F
:100BA00004020020000800404A4B5A6822F44032F8
:100BB0005A605A6841680A435A600268536823F4CD
:100BC0008073536002685368016943EA01235360EC
:100BD0000268536823F04073536002685368816869
:100BE0000B4353600268936823F4006393600268C8
:100BF0009368C1680B439360826A374B9A4257D01F
:100C00000268936823F07063936002689368816A56
:100C10000B4393600268936823F04053936002682B
:100C20009368C16A0B4393600268936823F00203E0
:100C3000936002689368017E43EA4103936090F8F1
:100C40002030002B3FD00268536843F400635360A8
:100C50000268536823F46043536001684B68426A3A
:100C6000013A43EA42334B600268D36A23F47003CB
:100C7000D3620168CB6AC269013A43EA0253CB628C
:100C80000268936823F4007393600268936890F895
:100C9000301043EA412393600268936823F4806331
:100CA000936002689368416943EA812393607047C7
:100CB0000268936823F0706393600268936823F07E
:100CC00040539360B0E70268536823F400635360B5
:100CD000CAE700BF002301400100000F38B310B580
:100CE0000446036C43B1236C13F0100F0BD00120AA
:100CF000002384F83C3010BDFFF78EFE00236364B0
:100D000084F83C30EFE7236C23F4885323F002038C
:100D100043F0020323642046FFF746FF002060648F
:100D2000236C23F0030343F001032364E0E7012075
:100D30007047000010B582B013460022019290F86F
:100D40003C20012A00F094800446012280F83C20D7
:100D50000268906810F0010F13D1906840F0010014
:100D60009060464A1068464AA2FB0020800C00EBC7
:100D70004000019002E0019801380190019800289C
:100D8000F9D12268906810F4807F03D0906820F435
:100D9000807090602268906810F0010F5DD0206C28
:100DA00020F4E06020F0010040F48070206452687C
:100DB00012F4806F05D0226C22F4405242F480522B
:100DC0002264226C12F4805F34D0626C22F006023E
:100DD0006264002284F83C20A26B2A48D063A26B94
:100DE00029481064A26B2948D06422686FF0220061
:100DF00010602068426842F0806242602068826829
:100E000042F48072826020680A4600F14C01A06BB7
:100E100000F08AFE1E4B5B6813F01F0F0DD1236894
:100E20009A6812F0405F25D19A6842F080429A6039
:100E300000201BE000226264CBE72368154A93423E
:100E400001D0002012E09A6812F0405F14D19A6835
:100E500042F080429A60002008E0236C43F01003C7
:100E60002364636C43F001036364002002B010BD8F
:100E70000220FBE70020F9E70020F7E70800002048
:100E800083DE1B43BD0E00089B0E0008A70E000862
:100E90000023014000200140704708B5806BFFF738
:100EA000FBFF08BD704708B5806B40230364436CAB
:100EB00043F004034364FFF7F5FF08BD08B503469C
:100EC000806B026C12F0500F25D1036C43F4007359
:100ED000036403689A6812F0405F19D1027EBAB9C0
:100EE000DA6A12F4700F03D09A6812F4806F0FD18F
:100EF0005A6822F020025A60036C23F48073036462
:100F0000036C13F4805F03D1036C43F001030364AB
:100F1000FFF718FC08BD026C12F0100F04D1826BB1
:100F2000D26C18469047F5E7FFF7BCFFF2E70000E8
:100F300030B482B00023019390F83C30012B00F0D4
:100F4000BB80012380F83C300B68092B41D9046831
:100F5000E2689BB203EB43031E3B4FF0070C0CFA15
:100F600003F322EA0303E3600468E2680B8803EBFF
:100F700043031E3B8D6805FA03F31343E3604B689C
:100F8000062B3DD80468626B03EB8303053B4FF0EF
:100F90001F0C0CFA03F322EA030363630468626B19
:100FA0004B6803EB8303053BB1F800C00CFA03F375
:100FB000134363630268414B9A4251D002683F4B2E
:100FC0009A4256D0002380F83C30184602B030BC1C
:100FD0007047046822699BB203EB43034FF0070C90
:100FE0000CFA03F322EA03032361046822690B88E5
:100FF00003EB43038D6805FA03F313432361BEE754
:101000000C2B16D805682A6B03EB8303233B1F24A4
:1010100004FA03F322EA03032B6305682A6B4B6887
:1010200003EB8303233B0C8804FA03F313432B6382
:10103000C0E70568EA6A03EB8303413B1F2404FA17
:1010400003F322EA0303EB620568EA6A4B6803EBE9
:101050008303413B0C8804FA03F31343EB62A9E7D3
:101060000B68122BAAD1164A536843F480035360CD
:10107000A4E70B68103B012BA4D8114A536843F432
:10108000000353600B68102B9CD10E4B1B6802F1C0
:10109000467202F52E3202F28332A2FB03239B0C2E
:1010A00003EB83035B00019302E0019B013B01938F
:1010B000019B002BF9D185E7022087E70020014042
:1010C0000023014008000020002800F0E08170B5F6
:1010D00082B00446036813F0010F3BD09F4B9B681E
:1010E00003F00C03042B2CD09C4B9B6803F00C03E7
:1010F000082B21D06368B3F5803F4FD0B3F5A02F04
:1011000052D0964B1A6822F480321A601A6822F480
:1011100080221A606368002B50D000F0A7FE0546BD
:101120008E4B1B6813F4003F14D100F09FFE401B50
:101130006428F5D90320B1E1884B5B6813F4800F74
:10114000D8D0864B1B6813F4003F03D06368002B94
:1011500000F09F81236813F0020F54D07F4B9B68EF
:1011600013F00C0F3ED07D4B9B6803F00C03082B53
:1011700033D0E368002B68D0794B01221A6000F06D
:1011800075FE0546754B1B6813F0020F54D100F035
:101190006DFE401B0228F5D903207FE16F4A1368DA
:1011A00043F480331360B5E76C4B1A6842F4802235
:1011B0001A601A6842F480321A60ABE700F056FEFB
:1011C0000546664B1B6813F4003FC3D000F04EFE8B
:1011D000401B6428F5D9032060E1604B5B6813F481
:1011E000800FC6D15D4B1B6813F0020F03D0E3687C
:1011F000012B40F05081594A136823F0F80321690C
:1012000043EAC1031360236813F0080F42D06369F7
:101210006BB3534B0122C3F8802E00F027FE054626
:101220004E4B5B6F13F0020F34D100F01FFE401BDA
:101230000228F5D9032031E1484A136823F0F80366
:10124000216943EAC1031360DDE7454B00221A60C0
:1012500000F00CFE0546414B1B6813F0020FD2D084
:1012600000F004FE401B0228F5D9032016E13C4B98
:101270000022C3F8802E00F0F9FD0546374B5B6F66
:1012800013F0020F06D000F0F1FD401B0228F5D943
:10129000032003E1236813F0040F77D02F4B1B6C5E
:1012A00013F0805F33D1002301932C4B1A6C42F072
:1012B00080521A641B6C03F080530193019B01253B
:1012C000284B1B6813F4807F23D0A368012B34D0F4
:1012D000052B38D0214B1A6F22F001021A671A6FC2
:1012E00022F004021A67A368002B3DD000F0BEFD77
:1012F00006461A4B1B6F13F0020F46D100F0B6FDE5
:10130000801B41F288339842F3D90320C6E00025C0
:10131000D6E7144A136843F48073136000F0A6FD07
:101320000646104B1B6813F4807FCED100F09EFD63
:10133000801B0228F5D90320B0E0084A136F43F060
:1013400001031367CFE7054B1A6F42F004021A67D7
:101350001A6F42F001021A67C5E700BF0038024069
:10136000000047420070004000F080FD0646524BEE
:101370001B6F13F0020F08D000F078FD801B41F2C4
:1013800088339842F3D9032088E0EDB9A369002B94
:1013900000F08380484A926802F00C02082A51D07B
:1013A000022B17D0454B00221A6600F05FFD044661
:1013B000414B1B6813F0007F42D000F057FD001B2B
:1013C0000228F5D9032069E03B4A136C23F08053CF
:1013D0001364DBE7394B00221A6600F047FD05462F
:1013E000354B1B6813F0007F06D000F03FFD401B1B
:1013F0000228F5D9032051E0E369226A1343626AA7
:1014000043EA8213A26A5208013A43EA0243E26ABB
:1014100043EA0263284A5360284B01221A6600F00F
:1014200025FD0446244B1B6813F0007F06D100F015
:101430001DFD001B0228F5D903202FE000202DE020
:1014400000202BE0012B2BD01B4B5B6803F48001A9
:10145000E269914226D103F03F02216A8A4223D1F8
:10146000616A47F6C0721A40B2EB811F1ED103F4C5
:101470004031A26A5208013AB1EB024F18D103F091
:101480007063E26AB3EB026F14D1002006E0012022
:101490007047012002E0012000E0002002B070BD92
:1014A0000120FBE70120F9E70120F7E70120F5E73C
:1014B0000120F3E70120F1E7003802400000474235
:1014C00008B5314B9B6803F00C03042B57D0082B55
:1014D00057D12D4B5A6802F03F025B6813F4800F1E
:1014E0002AD0294B5968C1F3881C4FEA4C11B1EB43
:1014F0000C006EEB0E0E4FEA8E1343EA90638101EF
:10150000091A63EB0E03DB0043EA5173C90011EBC8
:101510000C0C43F10003590200234FEA4C2041EA2E
:10152000DC51FEF7B5FE184B5B68C3F30143013392
:101530005B00B0FBF3F025E0134B5968C1F3881C46
:101540004FEA4C11B1EB0C006EEB0E0E4FEA8E130E
:1015500043EA90638101091A63EB0E03DB0043EA5F
:101560005173C90011EB0C0C43F1000399020023E5
:101570004FEA8C2041EA9C51FEF78AFED3E70348EC
:1015800000E0034808BD00BF0038024000127A00A6
:101590000024F400002800F09B8070B50D4604463E
:1015A0004F4B1B6803F007038B4208D2CBB24C4A67
:1015B0001370136803F007038B4240F08B8023689D
:1015C00013F0020F17D013F0040F04D0454A9368AC
:1015D00043F4E0539360236813F0080F04D0414AAA
:1015E000936843F4604393603E4A936823F0F003AA
:1015F000A1680B439360236813F0010F32D0636836
:10160000012B21D09A1E012A25D9364A126812F0E0
:10161000020F61D033498A6822F0030213438B60C2
:1016200000F024FC06462F4B9B6803F00C03626815
:10163000B3EB820F16D000F019FC801B41F2883307
:101640009842F0D9032042E0264A126812F4003F83
:10165000E0D101203BE0234A126812F0007FD9D18B
:10166000012034E01E4B1B6803F00703AB4207D98F
:10167000EAB21B4B1A701B6803F00703AB422DD173
:10168000236813F0040F06D0164A936823F4E0533E
:10169000E1680B439360236813F0080F07D0114AE9
:1016A000936823F46043216943EAC1039360FFF721
:1016B00007FF0C4B9B68C3F303130B4AD35CD84062
:1016C0000A4B18600A4B1868FFF730FA002070BD0B
:1016D000012070470120FAE70120F8E70120F6E732
:1016E000003C02400038024054510008080000202D
:1016F00004000020014B1868704700BF080000205C
:1017000008B5FFF7F7FF044B9B68C3F38223034A36
:10171000D35CD84008BD00BF0038024064510008C7
:1017200008B5FFF7E7FF044B9B68C3F34233034A56
:10173000D35CD84008BD00BF0038024064510008A7
:101740000F2303600B4B9A6802F0030242609A6811
:1017500002F0F00282609A6802F4E052C2609B6874
:10176000DB0803F4E0530361034B1B6803F007033A
:101770000B60704700380240003C024000230F2BF2
:1017800000F2D28070B582B060E085685E0003240C
:10179000B44025EA0405CC68B4402C438460456815
:1017A00025EA02054C68C4F300129A402A434260BD
:1017B0005AE0DC08083450F8246003F00702950072
:1017C0000F22AA4026EA020E0A69AA4042EA0E0245
:1017D00040F824205CE0042200E0002202FA0EF22D
:1017E0002A430234514D45F82420514A14686FEAC7
:1017F0000C0224EA0C054E6816F4803F01D04CEA36
:1018000004054B4C2560646802EA04054E6816F432
:10181000003F01D04CEA0405454C6560A46802EA2B
:1018200004054E6816F4801F01D04CEA0405404CB4
:10183000A560E46822404D6815F4001F01D04CEA11
:1018400004023B4CE26001330F2B6BD801229A401B
:101850000C6804EA020C32EA0404F4D14C6804F087
:101860000304013C012C90D94A6802F00302032AC8
:1018700009D0C4685D000322AA4024EA02048A68F1
:10188000AA402243C2604A6802F00302022A90D0B2
:1018900004684FEA430E032202FA0EF224EA02041D
:1018A0004A6802F0030202FA0EF2224302604A681A
:1018B00012F4403FC7D0002201921E4A546C44F4F7
:1018C00080445464526C02F480420192019A9C0854
:1018D000A51C164A52F8255003F003024FEA820E67
:1018E0000F2202FA0EF225EA0205134A90423FF453
:1018F00074AF02F5806290420ED002F58062904291
:101900000CD002F5806290420AD002F580629042CB
:101910003FF461AF072261E701225FE702225DE742
:1019200003225BE702B070BD704700BF0038014082
:10193000003C014000380240000002400AB18161D1
:101940007047090481617047436901EA030221EA93
:10195000030141EA02418161704730B405682C6897
:1019600024F480242C60046863608368402B05D0D5
:10197000036899600368DA6030BC704703689A6056
:101980000368D960F8E7000010B40368D9B21039D1
:101990000C4AA2FB014212090B4CA25CC2655F29F2
:1019A00009D923F47F7323F0030304338365806D27
:1019B0005DF8044B704723F47F7323F003038365C2
:1019C000F5E700BFABAAAAAA4C510008836A826956
:1019D00092B9012B0AD0022B02D00BB10020704724
:1019E000C36A13F0807F28D100207047C36AB3F127
:1019F000C07F24D000207047B2F5005F09D0022BD1
:101A000025D9032B25D1C36A13F0807F23D1002071
:101A10007047032B03D8DFE803F01404140A0020F6
:101A20007047C36A13F0807F0DD100207047C36AEE
:101A3000B3F1C07F09D0002070470120704701201A
:101A40007047012070470120704701207047012036
:101A500070470020704701207047000070B50446B1
:101A600000F004FA002C5BD00546022384F83530E0
:101A7000002384F834302268136823F001031360D4
:101A800023681A6812F0010F0AD000F0EFF9431B27
:101A9000052BF5D920236365032084F8350070BD3C
:101AA0001A68204810406168A2680A43E1680A4346
:101AB00021690A4361690A43A1690A43E1690A434A
:101AC000216A0A430243616A04291ED01A6026680B
:101AD000756925F00705636A1D43042B07D1A36AC6
:101AE0001D43E36A1BB12046FFF770FF90B9756193
:101AF0002046FFF749FFE26D3F23934083600020BB
:101B00006065012384F83530C9E7E16A206B014341
:101B10000A43DBE740236365012084F83500BEE714
:101B20000120BCE73F8010F038B50446856D90F881
:101B3000340001282BD0012084F8340094F83500BB
:101B4000C0B2012804D0002384F83430022038BD0C
:101B5000022084F83500002060652046FFF7FDFE76
:101B6000E26D3F239340AB602268136843F0160395
:101B70001360236C23B12268136843F008031360D9
:101B80002268136843F0010313600020DFE702209E
:101B9000DDE70000F0B583B0044600230193724BEB
:101BA0001D68724BA3FB0535AD0A876D3E68C26D9B
:101BB00008239340334210D003681A6812F0040FD0
:101BC0000BD01A6822F004021A60C26D08239340F9
:101BD000BB60436D43F001034365E26D0123934015
:101BE000334209D02268526912F0800F04D0BB60E2
:101BF000636D43F002036365E26D04239340334257
:101C000009D02268126812F0020F04D0BB60636D25
:101C100043F004036365E26D10239340334224D004
:101C20002268126812F0080F1FD0BB6023681A6880
:101C300012F4802F0DD01B6813F4002F04D1236CF5
:101C40009BB12046984710E0A36C73B1204698479B
:101C50000BE01A6812F4807F03D11A6822F00802A0
:101C60001A60236C0BB120469847E26D2023934005
:101C7000334255D02268126812F0100F50D0BB606A
:101C800094F83530DBB2052B0ED023681A6812F4B5
:101C9000802F33D01B6813F4002F2AD1636C002BE4
:101CA0003ED0204698473BE02268136823F0160395
:101CB00013602268536923F080035361236CA3B13E
:101CC0002268136823F008031360E26D3F239340FA
:101CD000BB60012384F83530002384F83430236D51
:101CE000002B3FD0204698473CE0A36C002BE7D167
:101CF000EBE7E36BA3B12046984711E01A6812F4B2
:101D0000807F09D11A6822F010021A60012384F83A
:101D10003530002384F83430E36B0BB1204698470C
:101D2000636DFBB1636D13F0010F17D0052384F8C9
:101D300035302268136823F001031360019B0133DF
:101D40000193AB4204D823681B6813F0010FF5D14F
:101D5000012384F83530002384F83430E36C0BB170
:101D60002046984703B0F0BD08000020B5814E1B07
:101D7000074AD36823F4E0631B041B0C000200F441
:101D8000E060034343F0BF6343F40033D360704724
:101D900000ED00E000B5194BDB68C3F30223C3F18B
:101DA000070CBCF1040F28BF4FF0040C03F1040E24
:101DB000BEF1060F18D9033B4FF0FF3E0EFA0CFCA4
:101DC00021EA0C0199400EFA03F322EA03031943B6
:101DD00000280BDB0901C9B200F1604000F5614049
:101DE00080F800135DF804FB0023E5E700F00F0026
:101DF0000901C9B2024B1954F4E700BF00ED00E03D
:101E000014ED00E0002807DB00F01F024009012369
:101E10009340024A42F82030704700BF00E100E0E2
:101E200008B50B4B1A6842F400721A601A6842F443
:101E300080621A601A6842F480721A600320FFF709
:101E400097FF0F20FEF772FEFEF7C4FD002008BDCD
:101E5000003C0240034A1168034B1B780B4413609B
:101E6000704700BF4C02002000000020014B1868A2
:101E7000704700BF4C0200207047000090F83D30D2
:101E8000DBB2012B2FD1022380F83D300268D368EA
:101E900043F00103D3600368154A934218D0B3F1AD
:101EA000804F15D0A2F57C42934211D002F580629A
:101EB00093420DD002F58062934209D002F59A3226
:101EC000934205D01A6842F001021A600020704760
:101ED0009A6802F00702062A07D01A6842F0010247
:101EE0001A6000207047012070470020704700BF33
:101EF00000000140704770477047704710B50446B6
:101F000003681A6912F0020F11D0DA6812F0020F9A
:101F10000DD06FF002021A610123037703689B69F9
:101F200013F0030F70D0FFF7E6FF00232377236839
:101F30001A6912F0040F12D0DA6812F0040F0ED0F2
:101F40006FF004021A610223237723689B6913F45C
:101F5000407F5FD02046FFF7CEFF00232377236822
:101F60001A6912F0080F12D0DA6812F0080F0ED0BA
:101F70006FF008021A61042323772368DB6913F0EA
:101F8000030F4ED02046FFF7B6FF002323772368C8
:101F90001A6912F0100F12D0DA6812F0100F0ED07A
:101FA0006FF010021A61082323772368DB6913F4AA
:101FB000407F3DD02046FFF79EFF00232377236814
:101FC0001A6912F0010F03D0DA6812F0010F36D14E
:101FD00023681A6912F0800F03D0DA6812F0800FBC
:101FE00034D123681A6912F0400F03D0DA6812F076
:101FF000400F32D123681A6912F0200F03D0DA683B
:1020000012F0200F30D110BDFFF774FF2046FFF70C
:1020100073FF8AE72046FFF76DFF2046FFF76CFF4E
:102020009BE72046FFF766FF2046FFF765FFACE71A
:102030002046FFF75FFF2046FFF75EFFBDE76FF02A
:1020400001021A612046FEF7ADFBC1E76FF0800286
:102050001A61204600F08BF8C3E76FF040021A6166
:102060002046FFF74AFFC5E76FF020021A612046BD
:1020700000F07CF8C7E700000368254A90420ED0C4
:10208000B0F1804F0BD0A2F57C42904207D002F510
:102090008062904203D002F58062904203D123F027
:1020A00070034A6813431A4A90421AD0B0F1804F25
:1020B00017D0A2F57C42904213D002F58062904284
:1020C0000FD002F5806290420BD002F59A32904216
:1020D00007D002F58062904203D002F58062904200
:1020E00003D123F44073CA68134323F080034A6981
:1020F000134303608B68C3620B688362044B98428E
:1021000002D00123436170470B690363F9E700BF05
:102110000000014040B310B5044690F83D30F3B1E3
:10212000022384F83D30214651F8040BFFF7A4FF49
:10213000012384F8463084F83E3084F83F3084F838
:10214000403084F8413084F8423084F8433084F8D9
:10215000443084F8453084F83D30002010BD80F8CC
:102160003C30FFF789FEDBE701207047704770477E
:10217000034AD2F8883043F47003C2F888307047BD
:1021800000ED00E000F1080343604FF0FF32826091
:10219000C36003610023036070470023036170473D
:1021A00043684B609A688A6051609960086103686F
:1021B00001330360704730B40D68B5F1FF3F11D0B3
:1021C00000F108031C465B681A68AA42FAD96368E2
:1021D0004B6099608C606160086103680133036043
:1021E00030BC70470469F2E70369416882688A601D
:1021F000416851605A68824206D0002202611A6822
:10220000013A1A601868704782685A60F5E710B59D
:10221000044601F067FFA26BE36B9A4204D00024EE
:1022200001F082FF204610BD0124F9E710B50446F5
:1022300001F058FFA36B23B9012401F075FF20467C
:1022400010BD0024F9E770B504461546866B026C94
:102250005AB903681BB100200136A66370BD8068BF
:1022600001F0A6F80023A360F6E76DB9406802F01C
:1022700043FA226C636813446360A268934219D3E3
:10228000236863602846E7E7C06802F035FA226CED
:102290005142E3689B1AE3602268934202D2A3682A
:1022A0000B44E360022D01D00020D5E726B1013EAA
:1022B0000020D1E72846CFE70020CDE70346026C97
:1022C0006AB110B50846D9681144D9609C68A1422A
:1022D00001D31968D960D96802F00EFA10BD7047B1
:1022E00038B5054601F0FEFE95F8454064B201E0C0
:1022F000013C64B2002C0ADD6B6A43B105F1240095
:1023000000F0ACFF0028F3D001F03CF8F0E7FF2329
:1023100085F8453001F008FF01F0E4FE95F84440EF
:1023200064B201E0013C64B2002C0ADD2B6943B1C8
:1023300005F1100000F092FF0028F3D001F022F820
:10234000F0E7FF2385F8443001F0EEFE38BD38B5E4
:10235000E0B10D46044601F0C5FE2368E26B216C36
:1023600001FB0230A0600020A0636360013A02FB21
:102370000133E360FF2384F8443084F84530FDB92D
:10238000236963B901F0D0FE012038BD4FF050033E
:1023900083F31188BFF36F8FBFF34F8FFEE704F114
:1023A000100000F05BFF0028ECD04FF0E0234FF06E
:1023B0008052C3F8042DBFF34F8FBFF36F8FE1E757
:1023C00004F11000FFF7DEFE04F12400FFF7DAFE4F
:1023D000D8E738B51D46049C0B4649B92460E06334
:1023E000236401212046FFF7B2FF84F84C5038BD2A
:1023F0002260F4E740B94FF0500383F31188BFF334
:102400006F8FBFF34F8FFEE710B584B01C46844634
:1024100053B192B189B94FF0500383F31188BFF3E0
:102420006F8FBFF34F8FFEE74FF0500383F3118898
:10243000BFF36F8FBFF34F8FFEE76AB15023039353
:10244000039B502B13D04FF0500383F31188BFF33D
:102450006F8FBFF34F8FFEE70029EFD04FF050038F
:1024600083F31188BFF36F8FBFF34F8FFEE7039B9A
:10247000012384F8463000949DF818306046FFF739
:10248000A8FF204604B010BD40B94FF0500383F3BD
:102490001188BFF36F8FBFF34F8FFEE7F0B583B0A6
:1024A0000D461446064601FB00F0503001F0F8FCE2
:1024B000074650B1002380F846300090234600F1D3
:1024C000500229463046FFF784FF384603B0F0BD7E
:1024D000F0B585B0019288B10F461D460446B1B1F2
:1024E000022D20D1E36B012B1DD04FF0500383F35D
:1024F0001188BFF36F8FBFF34F8FFEE74FF050038C
:1025000083F31188BFF36F8FBFF34F8FFEE7036C28
:10251000002BE5D04FF0500383F31188BFF36F8F8A
:10252000BFF34F8FFEE700F033FF064658B9019B1B
:10253000002B48D04FF0500383F31188BFF36F8F07
:10254000BFF34F8FFEE700263DE02A46394620467E
:10255000FFF779FE636A7BB948B14FF0E0234FF093
:102560008052C3F8042DBFF34F8FBFF36F8F01F07C
:10257000DBFD012005B0F0BD04F1240000F06EFE8B
:102580000028F4D04FF0E0234FF08052C3F8042D20
:10259000BFF34F8FBFF36F8FE9E701F0C5FD002058
:1025A000E8E702A800F0A0FE012619E0002384F865
:1025B000443021E0002384F8453023E02046FFF733
:1025C0008FFE00F0D9FC01F08DFDA26BE36B9A4207
:1025D000BBD3022DB9D0019B002BDED0002EE0D062
:1025E00001F0A2FD00F026FC01F07CFD94F84420EF
:1025F00052B2B2F1FF3FD9D094F8452052B2B2F1B5
:10260000FF3FD7D001F090FD01A902A800F078FEAD
:10261000D8B92046FFF7FBFD0028CFD0019904F17F
:10262000100000F0E7FD2046FFF75AFE00F0A4FC82
:102630000028C8D14FF0E0234FF08052C3F8042D9A
:10264000BFF34F8FBFF36F8FBDE72046FFF748FE04
:1026500000F092FC00208DE72DE9F84390B10F4681
:1026600016461C460546B1B1022C20D1EB6B012B5E
:102670001DD04FF0500383F31188BFF36F8FBFF36A
:102680004F8FFEE74FF0500383F31188BFF36F8F36
:10269000BFF34F8FFEE7036C002BE5D04FF05003E4
:1026A00083F31188BFF36F8FBFF34F8FFEE701F005
:1026B0003FFEEFF311894FF0500383F31188BFF30E
:1026C0006F8FBFF34F8FAA6BEB6B9A4206D3022C2E
:1026D00004D0002089F31188BDE8F88395F845807F
:1026E0004FFA88F8AB6B224639462846FFF7ABFD18
:1026F000B8F1FF3F06D008F101035BB285F8453021
:102700000120E7E76B6A0BB90120E3E705F124003C
:1027100000F0A4FD18B126B101203060DAE70120F5
:10272000D8E70120D6E7F0B585B0019290B10F4609
:102730000446C1B100F02CFE064600BB019B002BF5
:102740005ED04FF0500383F31188BFF36F8FBFF358
:102750004F8FFEE74FF0500383F31188BFF36F8F65
:10276000BFF34F8FFEE7036C002BE3D04FF0500315
:1027700083F31188BFF36F8FBFF34F8FFEE70026FF
:102780003EE039462046FFF799FD013DA5632369E8
:1027900023B901F0C9FC012005B0F0BD04F110001F
:1027A00000F05CFD0028F4D04FF0E0234FF08052A1
:1027B000C3F8042DBFF34F8FBFF36F8FE9E701F02C
:1027C000B3FC0020E8E702A800F08EFD012621E01E
:1027D000002384F8443029E0002384F845302BE0BE
:1027E0002046FFF77DFD00F0C7FB09E02046FFF71C
:1027F00077FD00F0C1FB2046FFF718FD00283FD110
:1028000001F070FCA56B002DBBD1019B002BD6D035
:10281000002ED8D001F088FC00F00CFB01F062FC27
:1028200094F844305BB2B3F1FF3FD1D094F8453017
:102830005BB2B3F1FF3FCFD001F076FC01A902A853
:1028400000F05EFD0028D1D12046FFF7EFFC002804
:10285000C6D0019904F1240000F0CCFC2046FFF71B
:102860003FFD00F089FB0028CAD14FF0E0234FF074
:102870008052C3F8042DBFF34F8FBFF36F8FBFE7B4
:10288000002089E72DE9F843B0B10D46164604460D
:10289000D9B101F04DFDEFF311884FF0500383F3F0
:1028A0001188BFF36F8FBFF34F8FA76BCFB9002095
:1028B00088F31188BDE8F8834FF0500383F3118843
:1028C000BFF36F8FBFF34F8FFEE7036C002BE0D099
:1028D0004FF0500383F31188BFF36F8FBFF34F8F17
:1028E000FEE794F844904FFA89F929462046FFF70D
:1028F000E5FC013FA763B9F1FF3F06D009F10103F1
:102900005BB284F844300120D2E723690BB901207F
:10291000CEE704F1100000F0A1FC18B126B10120AF
:102920003060C5E70120C3E70120C1E70023072B82
:102930000CD8074A52F833200AB10133F7E7044AAA
:1029400042F8331002EBC30358607047704700BF72
:102950005002002070B504460D46164601F0C2FB39
:1029600094F844305BB2B3F1FF3F0DD094F845309A
:102970005BB2B3F1FF3F0BD001F0D6FBA36B5BB1B1
:102980002046FFF7ADFC70BD002384F84430EDE72E
:10299000002384F84530EFE73246294604F124004D
:1029A00000F040FCECE70000084B1B681B6823B9F3
:1029B000074B4FF0FF321A607047044B1B68DB680F
:1029C000DB685A68024B1A60704700BF940200200F
:1029D0003C0700202DE9F04780460D4617469946F2
:1029E000089EDDF824A00A9C9200A521206B01F02E
:1029F00091FE236B07F18042013A03EB820727F037
:102A00000707B5B34FF0000CBCF10F0F0BD815F84A
:102A10000C2004EB0C0383F8342015F80C3013B1B0
:102A20000CF1010CF0E7002384F84330372E00D975
:102A30003726E662E66400252565201DFFF7ADFB1D
:102A400004F11800FFF7A9FB2461C6F13806A6615E
:102A50006462656584F858504A464146384601F03C
:102A600019FB2060BAF1000F01D0CAF80040BDE8A0
:102A7000F087002384F83430D8E7000038B500240C
:102A800007E004EB840293000E481844FFF77AFB3A
:102A90000134372CF5D90C4D2846FFF773FB0B4C4E
:102AA0002046FFF76FFB0A48FFF76CFB0948FFF76A
:102AB00069FB0948FFF766FB084B1D60084B1C606B
:102AC00038BD00BF9C020020100700202407002012
:102AD00048070020740700206007002094020020AF
:102AE0009802002010B5044601F0FCFA224A13684F
:102AF00001331360214B1B685BB1214B1B686BB921
:102B00001E4B1B68DA6AE36A9A4207D81B4B1C60AB
:102B100004E01A4B1C601368012B29D0194A136872
:102B2000013313606364E06A174B1B68984201D954
:102B3000154B186000EB8000211D144B03EB800047
:102B4000FFF72EFB01F0F0FA0D4B1B687BB10B4B2E
:102B50001B68DA6AE36A9A4209D24FF0E0234FF029
:102B60008052C3F8042DBFF34F8FBFF36F8F10BD9A
:102B7000FFF784FFD2E700BFFC0600209002002090
:102B80005C070020080700200C0700209C020020A2
:102B900010B5044690F8593063B1012B11D0022BC7
:102BA0000ED04FF0500383F31188BFF36F8FBFF344
:102BB0004F8FFEE7006B01F0F1F9204601F0EEF9CE
:102BC00010BD01F0EBF9FBE70F4B1B68D3B110B55B
:102BD00001F088FA0D4BDB68DC68201DFFF704FB71
:102BE0000B4A1368013B1360074A1368013B1360EB
:102BF00001F09AFA2046FFF7CBFF034B1B68002B2E
:102C0000E6D110BD704700BF000700207407002008
:102C1000FC06002008B5FFF7D7FF074B1B68012B08
:102C2000F9D94FF0E0234FF08052C3F8042DBFF3E1
:102C30004F8FBFF36F8FEEE79C02002070B5044604
:102C40000D46174B1E68174B18680430FFF7CCFA77
:102C5000B4F1FF3F0DD03444124B1B685C60A642B8
:102C600010D9114B18680F4B19680431FFF7A3FAFC
:102C700070BD002DEFD00B4B196804310B48FFF7E6
:102C80008FFAF5E70A4B1868064B19680431FFF70D
:102C900092FA084B1B68A342EAD9064B1C60E7E78F
:102CA0008807002090020020980200206007002082
:102CB000940200203C07002030B587B00B9C7CB10B
:102CC0000C9DB5B15C250495049D5C2D1AD04FF088
:102CD000500383F31188BFF36F8FBFF34F8FFEE76D
:102CE0004FF0500383F31188BFF36F8FBFF34F8F03
:102CF000FEE74FF0500383F31188BFF36F8FBFF3EC
:102D00004F8FFEE7049D0C9D2C63022485F85940EB
:102D100000240394029505AC01940A9C0094FFF7EB
:102D200059FE0C98FFF7DEFE059807B030BD2DE97F
:102D3000F04385B00746884614461E46900001F0D1
:102D4000AFF800B381465C2001F0AAF80546B0B1A7
:102D5000C0F83090E5B1002385F85930039302950F
:102D60000D9B01930C9B0093334622464146384607
:102D7000FFF730FE2846FFF7B5FE012005E0484684
:102D800001F00CF9E6E74FF0FF3005B0BDE8F08345
:102D90004FF0FF30F9E7000010B588B0002405942B
:102DA000069407AA06A905A800F0FEFF059B02935A
:102DB000069B019300942346079A18491848FFF789
:102DC0007BFF184B186040B100F0CCFB012806D007
:102DD000B0F1FF3F18D008B010BD0020F6E74FF06B
:102DE000500383F31188BFF36F8FBFF34F8F0E4BE8
:102DF0004FF0FF321A600D4B01221A600C4B00227B
:102E00001A6001F009FAE6E74FF0500383F31188E6
:102E1000BFF36F8FBFF34F8FFEE700BF6C51000809
:102E2000152C0008380700203C0700205C07002014
:102E300088070020024A136801331360704700BFFF
:102E400004070020014B1868704700BF8807002066
:102E500008B501F06DFA014B186808BD880700201D
:102E6000F8B53A4B1B68002B69D1394B1D68013509
:102E70001D60C5B9374B1B681B6843B14FF0500349
:102E800083F31188BFF36F8FBFF34F8FFEE7314A93
:102E90001168314B186810601960304A13680133AB
:102EA0001360FFF781FD2E4B1B68AB423DD9002715
:102EB0002C4B1B68DB6A03EB83039A002A4B9B585D
:102EC000012B00D90127294B1B68002B3CD001277F
:102ED0003AE001271F4B1B681B6843B31D4B1B685F
:102EE000DB68DC6863689D4226D3261D3046FFF709
:102EF0007BF9A36A1BB104F11800FFF775F9E36AC7
:102F00001B4A1268934201D9194A136003EB8303E9
:102F10009A00314614481044FFF742F9E26A114B17
:102F20001B68DB6A9A42D4D2D4E70027D2E70C4B65
:102F30004FF0FF321A60BBE7094A1360B8E70D4A49
:102F400013680133136000273846F8BD04070020DA
:102F500088070020940200209802002040070020EB
:102F60003C070020900200209C0200208C070020DB
:102F70000C0700204407002038B5354B1B6843B9C7
:102F80004FF0500383F31188BFF36F8FBFF34F8F60
:102F9000FEE701F0A7F82E4B1A68013A1A601B6889
:102FA000002B4FD12B4B1B680BB900244BE00024A6
:102FB000294B1B681BB3284BDB68DC6804F1180045
:102FC000FFF712F9251D2846FFF70EF9E06A234B9B
:102FD0001B68984201D9214B186000EB80002946FC
:102FE0001F4B03EB8000FFF7DBF8E26A1D4B1B6809
:102FF000DB6A9A42DCD31C4B01221A60D8E70CB181
:10300000FFF7D2FC194B1C6884B9174B1C68D4B16C
:103010004FF0E0234FF08052C3F8042DBFF34F8FE1
:10302000BFF36F8F01240EE0013C07D0FFF718FFBC
:103030000028F9D00C4B01221A60F5E70B4B002257
:103040001A60E2E7002401F06FF8204638BD00BFA7
:1030500004070020FC060020480700200C07002081
:103060009C020020900200208C07002044070020D2
:1030700038B558B10C46054689B94FF0500383F373
:103080001188BFF36F8FBFF34F8FFEE74FF05003F0
:1030900083F31188BFF36F8FBFF34F8FFEE71B4B96
:1030A0001B6843B14FF0500383F31188BFF36F8F58
:1030B000BFF34F8FFEE7FFF7BDFE154B18682B6877
:1030C0001C44834209D9A34201D82C600EE0A042DF
:1030D00001D32C600AE02C6004E0A34201D8A04296
:1030E00012D22C600021201AFFF7A8FDFFF744FF41
:1030F00048B94FF0E0234FF08052C3F8042DBFF3DE
:103100004F8FBFF36F8F38BD2C60EFE704070020AF
:103110008807002010B5A8B10446104B1B6843B1C6
:103120004FF0500383F31188BFF36F8FBFF34F8FBE
:10313000FEE7FFF77FFE00212046FFF77FFDFFF748
:103140001BFF48B94FF0E0234FF08052C3F8042D25
:10315000BFF34F8FBFF36F8F10BD00BF0407002078
:103160001F4B1B681BB11F4B01221A6070471D4B80
:1031700000221A601C4B1B6803EB83018A001B4969
:103180008A585AB90BB1013BF6E74FF0500383F36D
:103190001188BFF36F8FBFF34F8FFEE703EB830000
:1031A00082000A4450684068506003EB830C4FEA89
:1031B0008C020832114488420BD003EB8302910049
:1031C0000A4A0A445268D168094A1160064A1360E3
:1031D0007047406862469100044A0A445060ECE738
:1031E000040700208C0700200C0700209C02002010
:1031F0009002002058B110B50C46094A11681831E8
:10320000FEF7D9FF01212046FFF718FD10BD4FF052
:10321000500383F31188BFF36F8FBFF34F8FFEE727
:103220009002002038B570B10D4614460A4A116864
:103230001831FEF7B5FF0CB14FF0FF352146284697
:10324000FFF7FCFC38BD4FF0500383F31188BFF348
:103250006F8FBFF34F8FFEE79002002038B5C36831
:10326000DC6824B304F118052846FEF7BDFF184BAF
:103270001B682BBB251D2846FEF7B6FFE06A154BE1
:103280001B68984201D9134B186000EB8000294657
:10329000114B03EB8000FEF783FFE26A0F4B1B68C4
:1032A000DB6A9A4211D901200D4B186038BD4FF0EE
:1032B000500383F31188BFF36F8FBFF34F8FFEE787
:1032C00029460848FEF76CFFE7E70020EEE700BF5D
:1032D000040700200C0700209C0200209002002020
:1032E0008C07002048070020034B1B680360034B3A
:1032F0001B684360704700BF40070020880700201C
:10330000F8B5C8B10C460546F9B100F0EBFE1B4B11
:1033100019686B68C81A2268B2F1FF3F26D0184EB0
:1033200036682F68B74201D08B4224D9824215D823
:103330000023236001241AE04FF0500383F3118827
:10334000BFF36F8FBFF34F8FFEE74FF0500383F350
:103350001188BFF36F8FBFF34F8FFEE75B1A1344E3
:1033600023602846FFF7C0FF002400E0002400F09F
:10337000DBFE2046F8BD0124F9E700BF88070020E6
:1033800040070020014B01221A6070478C07002083
:10339000054B1B6833B1054B1B680BB10020704710
:1033A00002207047012070475C07002004070020BE
:1033B00000283BD038B504461E4B1B68834208D01A
:1033C0004FF0500383F31188BFF36F8FBFF34F8F1C
:1033D000FEE7036D43B94FF0500383F31188BFF349
:1033E0006F8FBFF34F8FFEE7013B0365C16AC26C6D
:1033F00091421DD00BB1002038BD051D2846FEF7B7
:10340000F3FEE06CE062C0F13803A3610A4B1B6875
:10341000984201D9084B186000EB80002946074B01
:1034200003EB8000FEF7BCFE0120E5E700207047BB
:103430000020E1E7900200200C0700209C02002001
:10344000064B1A6813682BB90123036023B9D368AC
:10345000186870470023F8E70020704790070020A5
:1034600008B54160006191420CD8D21A83699A4232
:1034700001D3012008BD011D094B1868FEF79BFE12
:103480000020F7E79A4201D2994206D2011D054B6E
:103490001868FEF790FE0020ECE70120EAE700BF85
:1034A000940700209007002030B583B000F01AFE8A
:1034B000114B1B681BB100F037FE03B030BD0F4D40
:1034C0002846FEF75FFE0E4C2046FEF75BFE0D4BD6
:1034D0001D600D4B1C60002300930C4B0C4A102107
:1034E0000A20FEF787FF044B18600028E3D0094943
:1034F000FFF71CFADFE700BFB408002038080020FF
:103500004C08002090070020940700206408002049
:1035100098070020745100082DE9F041079F41B938
:103520004FF0500383F31188BFF36F8FBFF34F8FBA
:10353000FEE7064614461D4688468FB1FFF7B4FFE6
:103540003E60C7F81880FD61069B3B62381DFEF7A0
:1035500024FE2CB197F8283043F0040387F8283074
:10356000BDE8F08110B588B0FFF79EFF124B1B68D5
:10357000CBB100240594069407AA06A905A800F07B
:103580001FFC059B0293069B019306230093234691
:10359000079A0A490A48FFF78FFB0A4B186010B1D7
:1035A000012008B010BD4FF0500383F31188BFF322
:1035B0006F8FBFF34F8FFEE7B40800207C510008E7
:1035C00055390008B80800202DE9F04182B00446C2
:1035D000884617461D462C2000F062FC064658B16E
:1035E000002380F828300190089B00932B463A4630
:1035F00041462046FFF790FF304602B0BDE8F0811B
:1036000010B584B084462C20039003982C2808D051
:103610004FF0500383F31188BFF36F8FBFF34F8FC9
:10362000FEE70398079860B10220079C84F8280001
:103630000194069800906046FFF76EFF079804B06B
:1036400010BD4FF0500383F31188BFF36F8FBFF3AA
:103650004F8FFEE7B8B19C4603461848006858B340
:1036600000B585B000910192029305291CDCFFF79B
:103670008FFE022810D000231A4669460F480068C2
:10368000FEF726FF15E04FF0500383F31188BFF3D8
:103690006F8FBFF34F8FFEE70023069A69460748F6
:1036A0000068FEF715FF04E0002362466946FEF756
:1036B000D3FF05B05DF804FB00207047B40800207C
:1036C00070B582B01B4B1B681A6862B3DB681E685A
:1036D000DC68251D2846FEF787FD236A20469847AB
:1036E00094F8283013F0040FECD0A36933449E42C1
:1036F00007D26360246129460E4B1868FEF75BFD14
:10370000E0E7002100910B4632462046FFF7A2FF7A
:103710000028D7D14FF0500383F31188BFF36F8F88
:10372000BFF34F8FFEE7044A106802490860136038
:1037300002B070BD900700209407002038B5054600
:10374000FFF780FB0446074B1B68834205D8002324
:103750002B60044B1C60204638BDFFF7B1FF0123EE
:103760002B60F6E76008002070B582B006460D4673
:1037700017490968C968CC68201DFEF735FD94F823
:1037800028C01CF0040F08D12CF0010C84F828C0CC
:10379000236A2046984702B070BDA16933462A4685
:1037A00031442046FFF75CFE0028F1D00021009153
:1037B0000B4632462046FFF74DFF0028E8D14FF078
:1037C000500383F31188BFF36F8FBFF34F8FFEE772
:1037D0009007002070B582B006460C46FFF72AFB22
:1037E00001A8FFF7ABFF019B33BB05460CB9B04204
:1037F00019D224B1124A12681268DAB90124224699
:10380000711B104B1868FFF7A5F8FFF7B5FBA8B9B7
:103810004FF0E0234FF08052C3F8042DBFF34F8FD9
:10382000BFF36F8F0AE0FFF7A7FB29463046FFF78B
:103830009BFF03E01C46E2E7FFF79EFB02B070BD72
:1038400094070020B408002010B588B002E0049B63
:10385000002B0FDA002204A93D4B1868FEF763FF26
:10386000002873D0049B002BF1DA07990698059B7A
:103870009847ECE7069C636913B1201DFEF7B4FC82
:1038800003A8FFF75BFF049B092BE3D8DFE803F0F5
:103890000505053037500505303794F8283043F0DA
:1038A000010384F82830059BA1690246194420468B
:1038B000FFF7D6FD0028CDD0236A2046984794F81C
:1038C000283013F0040FC5D0A269002100910B46E7
:1038D000059802442046FFF7BDFE0028BAD14FF0FC
:1038E000500383F31188BFF36F8FBFF34F8FFEE751
:1038F00094F8283023F0010384F82830AAE794F8DC
:10390000283043F0010384F828300599A16131B1D2
:103910000346024601442046FFF7A2FD9AE74FF016
:10392000500383F31188BFF36F8FBFF34F8FFEE710
:1039300094F8283013F0020F04D023F0010384F828
:10394000283087E7204600F029FB83E708B010BD48
:10395000B408002000B583B001A8FFF771FD0199FC
:10396000FFF738FFFFF770FFF6E740B110B50446E8
:1039700000F0B8FBE46900F0D7FB204610BD4FF023
:10398000500383F31188BFF36F8FBFF34F8FFEE7B0
:1039900008B5FFF7EAFF10B102684068904708BD1C
:1039A00008B54FF0E0231B69FFF7F2FC012800D1B6
:1039B00008BD00F007FCFBE7EFF305832BB9064BCE
:1039C000186828B901221A6070476FF00500704727
:1039D0004FF0FF30704700BF180B0020EFF3058356
:1039E00073B90A4B1B68012B0DD110B50024084B8D
:1039F000DC77064B02221A60FFF7CEF9204610BD95
:103A00006FF0050070474FF0FF307047180B002033
:103A100000ED00E008B5EFF3058313B1FFF718FAE6
:103A200008BDFFF70FFAFBE7F0B587B00024059457
:103A3000EFF3058474BB68B322B31568936903B9C7
:103A400018235C1E372C49D8546814F0010F47D155
:103A500056696EB14FEA960C94682CB1D7685B2F0B
:103A600002D9176907B1C6B92CB14FF0FF340EE087
:103A70004FF0800CF0E7D4688CB9146994B14FF022
:103A8000FF3404E01546002418234FF0800C012C6D
:103A90000AD0ACB1059807B0F0BD0124F7E74FF0AC
:103AA000FF34F4E70024F2E714699268029201946B
:103AB00000930B4662462946FFF7FEF80590E9E7BA
:103AC00005AA019200930B461FFA8CF22946FFF7D4
:103AD0002EF90128DED000230593DBE70020DAE78A
:103AE0000020D8E708B5EFF3058333B908B9002003
:103AF00008BDFFF70FFB0020FAE76FF00500F7E7BE
:103B0000EFF3058373B910B582B00446FFF79AF955
:103B10000190211A002908DD01A8FFF7A9FA002069
:103B200002B010BD6FF0050070476FF00300F7E7BB
:103B30002DE9F04383B0EFF30587002F43D106460C
:103B4000894615461C4600283FD0082000F0A8F9F9
:103B5000804600283BD006604560B9F1000F00D0D8
:103B6000012704B32068A36813B1E2682B2A10D898
:103B700053B14FF0FF33DBB10024404600F00EFAA2
:103B8000204603B0BDE8F083E3687BB14FF0FF331C
:103B9000F1E701930F4B009343463A460121FFF7AB
:103BA0002FFD04460CE020460023E4E70023E2E773
:103BB000084B009343463A460121FFF705FD0446B2
:103BC000002CDDD1D9E70024DAE70024D8E7044649
:103BD000D6E700BF91390008EFF305836BB90A46B9
:103BE00070B100B583B000930421FFF733FD0128C5
:103BF00009D1002003B05DF804FB6FF005007047A9
:103C00006FF0030070476FF00200F3E770B582B009
:103C1000EFF30583002B3AD1144600283BD000294E
:103C20003BD06AB393684BB1D2684F2A06D9226958
:103C300022B101FB00F56669AE421BD273B14FF0B1
:103C4000FF3363BB0022FEF71FFC054605B304B13A
:103C5000246821462846FEF769FE19E0E3688BB91F
:103C6000236913B14FF0FF33EBE763696BB14FF09A
:103C7000FF33E6E700250095FEF7BCFB0546E5E7C8
:103C80000023DEE74FF0FF33DBE70023D9E7002511
:103C9000284602B070BD0025FAE70025F8E70025A8
:103CA000F6E710B582B01C46EFF30583C3B118B335
:103CB00029B33CBB0023019301AAFEF7CDFC0128E8
:103CC00023D1019850B14FF0E0234FF08052C3F858
:103CD000042DBFF34F8FBFF36F8F002002B010BDD4
:103CE000B0B1C1B100232246FEF7F2FB012815D086
:103CF000B4B16FF00100F1E76FF00300EEE76FF091
:103D00000300EBE76FF00300E8E76FF00200E5E780
:103D10006FF00300E2E76FF00300DFE70020DDE76C
:103D20006FF00200DAE710B582B01C46EFF30583AE
:103D3000C3B110B321B334BB0023019301AAFEF732
:103D4000A1FD012822D1019850B14FF0E0234FF09E
:103D50008052C3F8042DBFF34F8FBFF36F8F002045
:103D600002B010BDA8B1B9B12246FEF7DCFC0128B3
:103D700015D0B4B16FF00100F2E76FF00300EFE788
:103D80006FF00300ECE76FF00300E9E76FF002006B
:103D9000E6E76FF00300E3E76FF00300E0E70020E1
:103DA000DEE76FF00200DBE7034B0360034B0B60C1
:103DB00080231360704700BFBC0A0020BC080020AD
:103DC000034B0360034B0B604FF480731360704729
:103DD0001C0F00201C0B0020124A12F0070F1ED0EF
:103DE000D11D21F00701C1F5705313440A460E4856
:103DF0000260002141601344083B23F007030B4895
:103E0000036059601960991A51601360084B19607A
:103E1000084B1960084B4FF000421A6070474FF48E
:103E20007053E4E77C0F0020904B0020780F0020B7
:103E3000844B0020804B00207C4B0020164B1A4600
:103E40001B688342FBD3516802EB010C844509D007
:103E5000416800EB010C634509D00360904219D022
:103E6000106070474068014451601046F0E710B49C
:103E70000A4C2468A3420BD05B6819444160136864
:103E80001B680360904200D010605DF8044B7047DF
:103E90000460F7E7704700BF904B0020780F0020C8
:103EA00070B50546FEF7C6FF364B1B68A3B1364B0F
:103EB0001B681D424ED135B1083515F0070F02D0F1
:103EC00025F007050835002D46D0304B1B68AB4266
:103ED00051D32F4A146804E0FFF77EFFE7E722463C
:103EE0001C466368AB4202D22368002BF7D1254BF6
:103EF0001B68A34241D016680836236813606368C4
:103F00005B1B102B10D9601910F0070F08D04FF071
:103F1000500383F31188BFF36F8FBFF34F8FFEE71A
:103F200043606560FFF78AFF626818490B689B1A57
:103F30000B60184909688B4201D216490B60124B7D
:103F40001B681343636000232360134A1368013323
:103F5000136002E0002600E00026FFF70DF816F0DF
:103F6000070F0CD04FF0500383F31188BFF36F8F0E
:103F7000BFF34F8FFEE70026EFE70026EDE7304660
:103F800070BD00BF780F00207C4B0020804B0020CC
:103F9000904B0020844B0020884B0020002834D018
:103FA00038B50446A0F1080550F8043C174A1268D9
:103FB000134208D14FF0500383F31188BFF36F8F82
:103FC000BFF34F8FFEE750F8081C41B14FF050038C
:103FD00083F31188BFF36F8FBFF34F8FFEE723EAA0
:103FE000020340F8043CFEF725FF54F8041C084A7D
:103FF00013680B4413602846FFF720FF054A136837
:1040000001331360FEF7B8FF38BD70477C4B0020CA
:10401000804B00208C4B002082B0002301930D4B7D
:104020001B68B3F1FF3F08D04FF0500383F31188B2
:10403000BFF36F8FBFF34F8FFEE74FF0500383F353
:104040001188BFF36F8FBFF34F8F019B002BFCD004
:1040500002B070470C00002008480068006880F338
:1040600008884FF0000080F3148862B661B6BFF391
:104070004F8FBFF36F8F00DF00BF000008ED00E03F
:10408000DFF80C00016841F4700101607047000026
:1040900088ED00E04FF0807340F8043C21F001010E
:1040A00040F8081C054B40F80C3C40F8202C6FF001
:1040B000020340F8243C4438704700BF1940000810
:1040C000074B19680868B0E8F04F80F30988BFF320
:1040D0006F8F4FF0000080F311887047AFF30080BE
:1040E000900200204FF0500383F31188BFF36F8FCD
:1040F000BFF34F8F0B4A136801331360012B00D0BD
:1041000070474FF0E023D3F8043D13F0FF0FF7D0D2
:104110004FF0500383F31188BFF36F8FBFF34F8FBE
:10412000FEE700BF0C000020094B1B6843B94FF0AD
:10413000500383F31188BFF36F8FBFF34F8FFEE7F8
:10414000013B034A13600BB983F31188704700BF2A
:104150000C00002000000000000000000000000033
:10416000EFF30980BFF36F8F154B1A681EF0100F25
:1041700008BF20ED108A20E9F04F10602DE90900FA
:104180004FF0500080F31188BFF34F8FBFF36F8F54
:10419000FEF7E6FF4FF0000080F3118809BC1968B4
:1041A0000868B0E8F04F1EF0100F08BFB0EC108A9E
:1041B00080F30988BFF36F8F704700BFAFF30080B3
:1041C0009002002008B54FF0500383F31188BFF32D
:1041D0006F8FBFF34F8FFEF743FE28B14FF0E02300
:1041E0004FF08052C3F8042D002383F3118808BDDB
:1041F0004FF0E022002313619361054B1B680549D2
:10420000A1FB03139B09013B536107231361704713
:1042100008000020D34D62104FF0E023D3F8002DAA
:104220003D4B9A421CD04FF0E023D3F8002D3B4B7E
:104230009A421ED030B583B0394B1A78D2B201926F
:10424000FF221A701B78DBB28DF803309DF8033023
:1042500003F05003334A1370334B07221A601BE0FC
:104260004FF0500383F31188BFF36F8FBFF34F8F6D
:10427000FEE74FF0500383F31188BFF36F8FBFF356
:104280004F8FFEE7284A1368013B13609DF8033007
:104290005B00DBB28DF803309DF8033013F0800F24
:1042A000F0D1214B1B68032B08D04FF0500383F350
:1042B0001188BFF36F8FBFF34F8FFEE71B021A4ABF
:1042C000136003F4E0631360019BDBB2144A1370C4
:1042D0004FF0E024D4F8203D43F47003C4F8203DAF
:1042E000D4F8203D43F07043C4F8203DFFF780FF31
:1042F00000250E4B1D60FFF7C3FED4F8343F43F09A
:104300004043C4F8343FFFF7A7FEFEF729FFFFF74D
:1043100083FE284603B030BD71C20F4170C20F4109
:1043200000E400E0984B00209C4B00200C00002093
:10433000EFF305830F2B0FD9114A9B5CDBB2114AB7
:1043400012789A4208D94FF0500383F31188BFF3D3
:104350006F8FBFF34F8FFEE74FF0E023D3F80C3D94
:1043600003F4E063084A1268934208D94FF05003FF
:1043700083F31188BFF36F8FBFF34F8FFEE7704752
:10438000F0E300E0984B00209C4B002038B5044639
:104390000268136923F44053C1680B4313618368B7
:1043A0000269134342691343C2691A430168CB6827
:1043B00023F4164323F00C031343CB6002685369C4
:1043C00023F4407381690B4353610368314A93427C
:1043D00006D002F58062934202D0FDF791F901E028
:1043E000FDF79EF9E369B3F5004F29D000210318CA
:1043F00049411B1841F10001C90041EA5371DB003A
:10440000181863684FEA83024FEA937341F1000181
:10441000FBF73EFF204DA5FB00325109642303FB4F
:1044200011031B013233A5FB03235B0903F0F002E8
:1044300002EB011203F00F03216813448B6038BDB7
:104440000023021843EB0301121841F10001C900D7
:1044500041EA5271D200101841F1000162689218CD
:104460005B41FBF715FF0C4DA5FB0032510964239E
:1044700003FB1103DB003233A5FB03235B095A0066
:1044800002F4F87202EB011203F0070321681344EF
:104490008B60D4E7001001401F85EB512DE9F843F4
:1044A00005460F4616469946DDF820802C6824689C
:1044B00037EA04030CBF4FF0010C4FF0000CB44579
:1044C0002DD1B8F1FF3FF1D0B8F1000F05D0FDF7C5
:1044D000CDFCA0EB09004045E8D92A6802F10C03A5
:1044E00053E8003F23F4D0730C3242E80031002936
:1044F000F3D12A6802F1140353E8003F23F00103CB
:10450000143242E800310029F3D1202385F83D30F0
:1045100085F83E30002385F83C30032000E0002081
:10452000BDE8F88358B310B5044690F83D300BB39E
:10453000242384F83D302268D36823F40053D360E9
:104540002046FFF723FF2268136923F49043136189
:104550002268536923F02A0353612268D36843F425
:104560000053D36000202064202384F83D3084F879
:104570003E3010BD80F83C30FCF7A2FAD8E70120AD
:1045800070472DE9F04182B01E4690F83D30DBB215
:10459000202B54D104460D469046002953D0002AC2
:1045A00053D090F83C30012B51D0012380F83C309F
:1045B00000230364212380F83D30FDF757FC0746B4
:1045C000A4F82480A4F82680A368B3F5805F05D002
:1045D0004FF00008002384F83C3012E0236913B147
:1045E0004FF00008F6E7A8460025F3E738F8023B4D
:1045F0002268C3F308035360E28C92B2013A92B28C
:10460000E284E38C9BB273B100963B46002280218A
:104610002046FFF743FFE0B9002DE7D015F8012B46
:1046200023685A60E8E700963B4600224021204676
:10463000FFF734FF78B9202384F83D3000E00220F2
:1046400002B0BDE8F0810120FAE70120F8E702207E
:10465000F6E70320F4E70320F2E70000DFF834D0A8
:104660000D480E490E4A002302E0D458C4500433CA
:10467000C4188C42F9D30B4A0B4C002301E01360A1
:104680000432A242FBD3FDF773FD00F011F8FCF7F2
:104690003BF97047008001200000002074000020DA
:1046A000C851000874000020B44B0020FEE7000051
:1046B00070B50D4D0D4C641BA4100026A64209D107
:1046C0000B4D0C4C00F09CFC641BA4100026A64271
:1046D00005D170BD55F8043B98470136EEE755F813
:1046E000043B98470136F2E7C0510008C05100086A
:1046F000C0510008C45100080A44914200F1FF3340
:1047000000D1704710B511F8014B03F8014F9142E9
:10471000F9D110BD02440346934200D1704703F81B
:10472000011BF9E70EB400B59CB01DAB02900690DA
:104730006FF00041094807910491094953F8042B8F
:1047400005910068019302A900F068F8029B00221D
:104750001A701CB05DF804EB03B070471000002025
:104760000802FFFF2DE9F0478E689E4282460C4604
:1047700090461F4638D88A8912F4906F32D0256847
:104780000969A5EB0109656905EB450505EBD575DB
:1047900001334B446D109D4238BF1D46530531D542
:1047A000294600F055FB064650B90C23CAF80030E4
:1047B000A38943F04003A3814FF0FF30BDE8F087A9
:1047C00021694A46FFF798FFA38923F4906343F0D9
:1047D0008003A381266165614E44A5EB090526602F
:1047E000A5603E46BE4200D93E462068324641465C
:1047F00000F0A8FAA3689B1BA360236833442360DE
:104800000020DBE72A4600F097FB06460028E1D1AE
:104810002169504600F0B0FAC7E700002DE9F04FDB
:1048200098468B891B069DB007460D4614460ED54B
:104830000B6963B9402100F00BFB2860286120B9A7
:104840000C233B604FF0FF30D1E040236B6100232D
:10485000099320238DF82930CDF80C803023DFF820
:10486000A8818DF82A304FF0010923469A4613F8A3
:10487000012B0AB1252AF9D1BAEB040B0BD05B4608
:10488000224629463846FFF76DFF013000F0AA8026
:10489000099A5A4409929AF80030002B00F0A2803D
:1048A00000234FF0FF32CDE905230AF1010A0493FA
:1048B00007938DF853301A935446052214F8011BC0
:1048C0005148FBF795FC049AD8B9D00644BF202381
:1048D0008DF85330110744BF2B238DF853309AF8CD
:1048E00000302A2B15D0079A544600204FF00A0CAE
:1048F000214611F8013B303B092B4ED9B0B107924C
:1049000014E0A0EB080309FA03F313430493A2464F
:10491000D2E7039B191D1B680391002BBBBF5B42B1
:1049200042F0020207930793B8BF049223782E2B1C
:104930000CD163782A2B35D1039B1A1D1B68039277
:10494000002BB8BF4FF0FF3302340593DFF8C8A047
:10495000217803225046FBF74BFC40B14023A0EBEB
:104960000A0003FA00F0049B03430134049314F893
:10497000011B26488DF828100622FBF739FC002879
:1049800038D0234B1BBB039B073323F007030833AB
:104990000393099B3344099367E70CFB02320C46EF
:1049A0000120A5E700230134059319464FF00A0CB6
:1049B000204610F8012B303A092A03D9002BC5D024
:1049C0000591C3E70CFB012104460123F0E703AB8B
:1049D00000932A460F4B04A93846AFF30080421CCF
:1049E0000646D6D1AB895B063FF52CAF09981DB0C2
:1049F000BDE8F08F03AB00932A46064B04A9384666
:104A000000F07AF8EBE700BF845100088E510008EF
:104A100000000000654700088A5100082DE9F047B2
:104A2000164699468A680B69DDF820809342B8BF24
:104A30001346336091F8432007460C460AB1013310
:104A400033602368990642BF3368023333602568B8
:104A500015F0060506D104F1190AE36832689B1ABD
:104A6000AB4226DC94F84320131E226818BF0123B2
:104A700092062BD404F1430249463846C047013020
:104A80001ED02368E568326803F00603042B08BFD4
:104A9000AD1AA36822690CBF25EAE575002593428B
:104AA000C4BF9B1AED1800261A34B5421AD1002053
:104AB00008E00123524649463846C047013003D139
:104AC0004FF0FF30BDE8F0870135C6E7E1185A1C0A
:104AD000302081F84300224494F8451082F84310B6
:104AE0000233C7E70123224649463846C047013012
:104AF000E6D00136D9E700002DE9FF470F7E0C9D77
:104B0000782F914680460C469A4601F1430207D819
:104B1000622F0AD8002F00F0D880582F00F0A38011
:104B200004F1420584F842703AE0A7F16303152BC3
:104B3000F6D801A151F823F0914B0008A54B0008CD
:104B4000214B0008214B0008214B0008214B000895
:104B5000A54B0008214B0008214B0008214B000801
:104B6000214B0008B14C0008D54B0008934C0008BD
:104B7000214B0008214B0008D34C0008214B0008B2
:104B8000D54B0008214B0008214B00089B4C000826
:104B90002B681A1D1B682A6004F1420584F8423014
:104BA0000123A3E020682968060601F104030AD561
:104BB0000E682B60002E03DA2D23764284F84330F2
:104BC0005E480A2319E00E682B6010F0400F18BFF2
:104BD00036B2EFE72B682068191D2960010601D560
:104BE0001E6802E04606FBD51E8854486F2F0CBF96
:104BF00008230A23002184F843106568A560002D6E
:104C0000A2BF216821F0040121600EB9002D4DD012
:104C10001546B6FBF3F103FB1167C75D05F8017D8F
:104C20003746BB420E46F4D9082B0BD12368DE076A
:104C300008D5236961689942DEBF302305F8013C3D
:104C400005F1FF35521B2261CDF800A04B4603AAA7
:104C500021464046FFF7E2FE01304CD14FF0FF30D5
:104C600004B0BDE8F087354881F8457029682368AD
:104C700051F8046B29601D0614D5DF0744BF43F0CB
:104C8000200323601EB9236823F020032360102330
:104C9000B0E7236843F0200323607823284884F892
:104CA0004530E3E7590648BFB6B2E6E71546BBE72D
:104CB0002B6826686169181D286035061B6801D5B8
:104CC000196002E07006FBD51980002323611546A8
:104CD000BAE72B681A1D2A601D6862680021284601
:104CE000FBF786FA08B1401B60606368236100230C
:104CF00084F84330A8E723692A4649464046D0470E
:104D00000130ABD023689B0713D4E068039B984223
:104D1000B8BF1846A4E70123324649464046D0476B
:104D200001309BD00135E36803995B1AAB42F2DC9A
:104D3000EBE7002504F11906F5E700BF95510008DF
:104D4000A6510008884210B501EB020402D9844242
:104D5000234607D8431EA14208D011F8012B03F8BF
:104D6000012FF8E7024401468A4200D110BD13F832
:104D7000014D02F8014DF7E737B5002944D051F84D
:104D8000043C0190002BA1F10404B8BFE41800F02A
:104D900013F91E4A0198136833B96360146003B0B5
:104DA000BDE8304000F00EB9A34208D9256861196A
:104DB0008B4201BF19685B6849192160EDE71A460B
:104DC0005B680BB1A342FAD911685518A5420BD103
:104DD000246821445418A3421160E0D11C685B6828
:104DE000536021441160DAE702D90C230360D6E74F
:104DF000256861198B4204BF19685B68636004BF52
:104E0000491921605460CAE703B030BDA04B0020AF
:104E100070B50E4E0C463168054611B900F0BCF86D
:104E200030602146284600F0B7F8431C0AD0C41C65
:104E300024F00304A04207D0211A284600F0ACF861
:104E4000013001D14FF0FF34204670BDA44B00204B
:104E50002DE9F041CD1C25F0030508350C2D38BF98
:104E60000C25002D074601DBA94205D90C233B6028
:104E700000263046BDE8F0812E4E00F09DF83368E4
:104E80001C4634BB29463846FFF7C2FF431C044684
:104E90004DD134682646002E40D12368314638462D
:104EA00004EB030800F078F880453AD12168033517
:104EB0006D1A25F0030508350C2D38BF0C25294641
:104EC0003846FFF7A5FF01302BD023682B44236021
:104ED0000EE02268521B1ED40B2A16D96119A34278
:104EE000256018BF5960636808BF316062514B602C
:104EF000384604F10B0600F065F826F00706231D7E
:104F0000F21AB6D09B1BA350B3E76268A3420CBF52
:104F100032605A60ECE723466468B2E7344676684C
:104F2000B9E70C233B60384600F04CF8A1E7256058
:104F3000DEE700BFA04B00202DE9F041804614467B
:104F40000E4621B9BDE8F0411146FFF781BF2AB9ED
:104F5000FFF712FF25462846BDE8F08100F038F83B
:104F60008442074602D8B4EB500F12D8214640467F
:104F7000FFF76EFF05460028EDD0BC4222463146C1
:104F800028BF3A46FFF7B8FB31464046FFF7F4FE2C
:104F9000E1E73546DFE7000038B5064D002304465B
:104FA00008462B6000F01EF8431C02D12B6803B1A9
:104FB000236038BDA84B0020014800F011B800BFA5
:104FC000AC4B0020014800F00CB800BFAC4B0020F7
:104FD00051F8043C181F002BBCBF0B58C018704779
:104FE00070477047044A05491368002B08BF0B46F9
:104FF0001844106018467047B04B0020B84B002092
:10500000F8B500BFF8BC08BC9E467047F8B500BFB5
:08501000F8BC08BC9E46704785
:105018000A0D5175657565204572726F72203A20C8
:10502800256C7520436F756C64204E6F7420526533
:1050380063656976652041444320617420256C7559
:10504800207469636B732E2E2E0A0D000A0D546F9F
:1050580067676C6564204C443220617420256C7548
:10506800207469636B732E200A0D00000A0D5175B8
:10507800657565204572726F72203A20256C752E11
:105088002E2E436F756C64204E6F742053656E64CA
:10509800204144430A0D0000746F67676C654C65D6
:1050A8006454696D65720000616463517565756566
:1050B80000000000636F6E73756D65725461736BE9
:1050C8000000000070726F64756365725461736BE1
:1050D80000000000B05000080000000000000000C0
:1050E800000000000000000000000000BC500008A4
:1050F80000000000000000000000000000000000A8
:10510800000200001800000000000000000000007D
:10511800CC50000800000000000000000000000063
:10512800000000000002000018000000000000005D
:1051380000000000A050000800000000000000006F
:1051480000000000000610160006101600000000FF
:10515800000000000102030406070809000000001F
:105168000102030449444C4500000000546D72518B
:1051780000000000546D722053766300232D302BFD
:105188002000686C4C006566674546470030313240
:105198003334353637383941424344454600303197
:1051A80032333435363738396162636465660000F6
:0851B80008B1FF7F01000000B7
:0451C000C50100081D
:0451C400A10100083D
:1051C80001000000100000000024F400AAAAAAAA06
:1051D8001400002000000000000000000000000093
:1051E80000000000000000000000000000000000B7
:1051F80000000000000000000000000000000000A7
:105208000000000000000000000000000000000096
:105218000000000000000000000000000000000086
:105228000000000000000000000000000000000076
:045238000000000072
:040000050800465D4C
:00000001FF
